:020000040800F2
:10000000000002206D1900082508000827080008D4
:10001000290800082B0800082D080008000000002F
:100020000000000000000000000000002F08000891
:1000300031080008000000003308000835080008F7
:10004000BD190008BD190008BD190008BD19000838
:10005000BD190008BD190008BD190008BD19000828
:10006000BD190008BD190008BD190008BD19000818
:10007000BD190008BD190008BD190008BD19000808
:10008000BD190008BD190008BD190008BD190008F8
:10009000BD190008BD190008BD190008BD190008E8
:1000A000BD190008BD190008BD190008BD190008D8
:1000B000BD190008BD190008BD190008BD190008C8
:1000C000BD190008BD190008BD190008BD190008B8
:1000D000BD190008BD190008BD190008C5040008B5
:1000E000BD190008BD190008BD190008BD19000898
:1000F000BD190008BD190008BD190008BD19000888
:10010000BD190008BD190008BD190008BD19000877
:10011000BD190008BD190008BD190008BD19000867
:10012000BD190008BD190008BD190008BD19000857
:10013000BD1900080000000000000000BD19000803
:10014000BD190008BD190008BD190008BD19000837
:10015000BD190008BD190008BD190008BD19000827
:10016000BD190008BD190008BD190008BD19000817
:10017000BD190008BD190008BD19000800000000E5
:1001800000000000BD190008000000000000000091
:10019000BD1900080000000000000000BD190008A3
:1001A000000000000000000000000000BD19000871
:1001B000BD190008BD190008BD190008BD190008C7
:0401C000BD1900085D
:1001D00001F0FF01102A2BDB10F0070F08D010F8F8
:1001E000013B013A8B422DD010F0070F42B3F6D1FC
:1001F000F0B441EA012141EA014122F007047FF015
:1002000000070023F0E80256083C85EA010586EA6B
:10021000010685FA47F5A3FA87F586FA47F6A5FAA7
:1002200087F68EB9EED1F0BC01F0FF0102F00702B3
:1002300032B110F8013B013A83EA010313B1F8D15E
:100240000020704701387047002D06BF354603383F
:10025000073815F0010F07D1013015F4807F02BF78
:10026000013015F4C03F0130F0BC0138704700BFC9
:1002700053B94AB9002908BF00281CBF4FF0FF310D
:100280004FF0FF3000F00CB8ADF1080C6DE904CE72
:1002900002F04AF8DDF804E0DDE9022304B070471B
:1002A000704700BF0348044B834202D0034B03B1A5
:1002B0001847704760000020600000200000000028
:1002C0000548064B1B1AD90F01EBA301491002D0B8
:1002D000034B03B118477047600000206000002006
:1002E0000000000010B5064C237843B9FFF7DAFF91
:1002F000044B13B10448AFF300800123237010BDF9
:1003000060000020000000003C26000808B5054BF6
:100310001BB105490548AFF30080BDE80840FFF771
:10032000CFBF00BF00000000640000203C26000892
:10033000431E012B70B5144E054622D83368DC6A83
:10034000012804F10104114808BF04EB44044FF0F4
:1003500000024FF0090108BFA40800F0BDFC0B48E3
:100360000122062100F0B8FC3368DC631C642CB960
:10037000064822460F2100F0AFFC2546044B1D70B5
:1003800070BD0024F0E700BFDC0000200004024044
:10039000910000202DE9F041C2B000F03DFD4FF08A
:1003A00080420346916AD06AD46B156C1668176A4E
:1003B000D2F81CC002F50132D2F800E0D2F8248055
:1003C0005269CDE90010CDE90882CDE906CECDE92C
:1003D0000467CDE90245074AE0210AA801F0F0FAD6
:1003E000192382B20AA9044801F071FA42B0BDE8AB
:1003F000F08100BF5426000894000020431E012B0A
:1004000088BF0020FFF794BF2DE9F0419CB000F0B9
:10041000F9FA4FF4005105462248234E00F056FCED
:10042000431E5C425C41214B1A78A2421EBF1C70E5
:100430001F4B1D603378A34207D01D4B1B68EB1A7E
:10044000132B02D92046FFF773FFDFF87480327850
:1004500098F80030174F934204D13B68EB1AB3F57C
:100460007A7F18D34FF0804304A8D96B1B6C00929D
:10047000CDE90113104A2346602101F0A1FA0A23B5
:1004800082B204A90D4801F022FAFFF783FF337806
:1004900088F800303D6001201CB0BDE8F04100F05C
:1004A000B7BA00BF00080240910000209000002071
:1004B0008C00002080000020BA2600089400002054
:1004C0000100002008B50A4B1A685B6802F026029A
:1004D000202A0CD1303BDBB2022B08D8054A13701E
:1004E00000F090FA044B1860044B01221A7008BD0A
:1004F000004800408800002084000020890000207F
:100500002DE9F04127209CB000F0E8FA00F07AFADB
:10051000294B2A491A78064602F0FF0452B1284AAC
:100520001268821AB2F5FA7F4FF0000482BF1C7085
:100530000C7001241D780F78EDB22720FFB200F077
:10054000BFFA55B92CB12846FFF7F2FE1D4BFF222A
:100550001A7028461CB0BDE8F081DFF87880194D8C
:10056000194C3846FFF74AFF98F800202B78934241
:1005700004D12368F31AB3F57A7F18D34FF0804380
:1005800004A8D96B1B6C0092CDE901130F4A3B46BE
:10059000602101F015FA0A2382B204A90C4801F087
:1005A00096F9FFF7F7FE98F800302B7026600120CF
:1005B00000F02EFA0125CCE78900002088000020F9
:1005C00084000020000000207C000020E3260008BA
:1005D00094000020910000200B4908B50B6CDA074D
:1005E00008D54FF080430022DA631A641A6A22F4B5
:1005F00088521A620B6B9B0704D5044800220F2116
:1006000000F06AFB72B6FEE70038024000040240C8
:1006100000B595B03022002108A801F007FA142295
:10062000002102A801F002FA00221A4B0092196C74
:1006300041F0805119641B6C174903F080530093FB
:10064000009B01920B6823F4404343F480430B600A
:100650000B680D9203F440430193019B022307931F
:1006600001201023CDE90A0307A800F03DFC014654
:1006700008B1FFF7B1FF0F23CDE90230CDE9040047
:10068000069002A800F02EFB0028F2D115B05DF80C
:1006900004FB00BF003802400070004000B58DB080
:1006A00000F08AF9FFF7B4FF142200210DEB0200DD
:1006B00001F0BCF90024544B00941A6B534842F0EB
:1006C00004021A631A6B02F004020092009A019469
:1006D0001A6B42F002021A631A6B02F002020192D4
:1006E000019A02941A6B42F008021A631B6B03F022
:1006F0000803224602930F21029B00F0EDFA01232A
:100700000F21CDE90513414805A9CDE9074400F0C3
:100710000BFA4FF40053CDE905343D48022305A9F7
:10072000079300F001FA1C22214605A8CDE90344F5
:1007300001F07CF9374A4FF08043C2E9003410469B
:1007400047F22F53C2E903349460946100F072FEC3
:1007500008B1FFF741FFCDE9030003A92D4800F0E0
:100760008BFF0028F5D16023CDE905300790099073
:100770000822284805A900F0B9FE0028E9D125483B
:100780000C2205A900F0B2FE05460028E1D1224C5A
:10079000204800F083F8214A25614FF4E1330C260C
:1007A0002046C4E90023C4E90255C4E90565E561B2
:1007B00001F05EF80028CCD1FFF7BAFD15480821FA
:1007C00000F058FF0028C4D11248314600F052FF13
:1007D00005460028BDD100F015F9114B2A461860D6
:1007E0000521272000F03AF9272000F069F9226856
:1007F000D36843F02003D360FFF782FE0028FBD1CB
:10080000FFF702FEF8E700BF003802400004024094
:1008100000080240DC000020940000200048004056
:100820008C000020FEE7FEE7FEE7FEE7FEE77047EC
:100830007047704700F0DAB882B00C4B002100918D
:100840005A6C42F480425A645A6C02F4804200921C
:10085000009A01911A6C42F080521A641B6C03F0EA
:1008600080530193019B02B0704700BF00380240E3
:100870000368B3F1804F82B00BD100230193064B84
:100880001A6C42F001021A641B6C03F0010301931D
:10089000019B02B0704700BF0038024010B504460B
:1008A00086B01422002101A801F0C0F82368B3F13A
:1008B000804F16D1002300930B4B0C481A6B42F06B
:1008C00002021A631B6B03F002030093009B4FF4B8
:1008D00040620223CDE9012301A90123059300F021
:1008E00023F906B010BD00BF0038024000040240EA
:1008F00010B5044688B01422002103A801F096F830
:100900002268144B9A4223D103F5F8330021019158
:100910001A6C114842F480221A641A6C02F4802284
:100920000192019A02911A6B42F008021A631B6B42
:1009300003F008030293029B4FF440720223032149
:10094000CDE903230723CDE9061303A900F0ECF852
:1009500008B010BD00480040000C0240034AD2F825
:10096000883043F47003C2F88830704700ED00E02F
:1009700038B50E4B1A784FF47A73B3FBF2F30C4A86
:1009800005461068B0FBF3F000F0BAF8044658B919
:100990000F2D09D8024629464FF0FF3000F05EF8CF
:1009A000044B20461D6038BD0120FCE708000020F4
:1009B000040000200C00002008B50B4B1A6842F41C
:1009C00000721A601A6842F480621A601A6842F46F
:1009D00080721A60032000F02FF80F20FFF7C8FF85
:1009E000FFF72AFF002008BD003C0240034A044BE9
:1009F00011681B780B441360704700BF240100206E
:100A000008000020014B1868704700BF2401002037
:100A100038B50446FFF7F6FF631C1CBF054B1B7877
:100A2000054618BFE418FFF7EDFF431BA342FAD3B6
:100A300038BD00BF080000200749CA6822F4E06200
:100A40000302120403F4E063120C134343F0BF6388
:100A500043F40033CB60704700ED00E0164B30B537
:100A6000DC68C4F30224C4F10703251D042B28BF4E
:100A70000423062D4FF0FF358CBF033C002405FAFC
:100A800003F321EA0303A54022EA0502A34000285C
:100A900043EA0203ACBF00F16040084A4FEA031387
:100AA000B8BF00F00F00DBB2AABF00F561401354DD
:100AB00080F8003330BD00BF00ED00E014ED00E031
:100AC000002807DB044A4109012300F01F0083408E
:100AD00042F82130704700BF00E100E000280CDB45
:100AE0004309064900F01F0020330122824041F8EB
:100AF0002320BFF34F8FBFF36F8F704700E100E0FB
:100B00000138B0F1807F0BD24FF0E023054A5861E5
:100B1000F02182F823100020072298611A617047A3
:100B20000120704700ED00E02DE9F74FDFF89891C4
:100B3000634A00230D6801249C4004EA0506AC4387
:100B400040F0AB804D68032705F003044FEA4308EB
:100B500007FA08FC671E012F6FEA0C0C34D887686F
:100B600007EA0C0ECF6807FA08F747EA0E07876016
:100B7000476827EA060EC5F300179F4047EA0E07AD
:100B80004760C76807EA0C0E8F6807FA08F747EA5C
:100B90000E07022CC76019D14FEAD30A00EB8A0A6C
:100BA00003F0070BDAF820704FEA8B0B4FF00F0EB3
:100BB0000EFA0BFE27EA0E0E0F6907FA0BF747EA4B
:100BC0000E07CAF8207001E0032CDAD1076804FA96
:100BD00008F407EA0C073C4315F4403F04605CD07E
:100BE00000240194D9F8444044F48044C9F84440B6
:100BF000D9F8444023F0030707F1804704F4804408
:100C000007F59C37019403F0030C019CD7F808E02A
:100C10004FEA8C0C0F2404FA0CF42EEA040E294C33
:100C2000A04241D004F58064A0423FD004F5806426
:100C3000A0423DD004F58064A0423BD004F580641E
:100C4000A04239D004F58064A04237D004F5806416
:100C5000A04214BF0724062404FA0CF444EA0E044C
:100C6000BC609468F74315F4801F0CBF3C403443CC
:100C70009460D46815F4001F0CBF3C403443D4602A
:100C8000546815F4003F0CBF3C4034435460146872
:100C9000ED0354BF3C40344314600133102B7FF408
:100CA00049AF03B0BDE8F08F0024D5E70124D3E7B6
:100CB0000224D1E70324CFE70424CDE70524CBE7C2
:100CC000003C01400000024000380240006908403A
:100CD000003818BF012070470AB1816170470904CC
:100CE000FBE700002DE9F0410D46044610B9012054
:100CF000BDE8F081434B1A6802F00F028A4228D304
:100D000021688F072DD4C80740D43E4B1A6802F0E3
:100D10000F02AA4265D8226851076BD4130707D582
:100D2000394A2169936823F4604343EAC10393601D
:100D300000F092F8344B354A9B68C3F30313D35C3D
:100D4000D840334B1860334B1868FFF711FE002072
:100D5000CEE7CAB21A701B6803F00F038B42C6D1EC
:100D6000CEE7294B11F0040F1EBF9A6842F4E052FF
:100D70009A600E0742BF9A6842F460429A609A688D
:100D8000A06822F0F00202439A60BCE762681E4B42
:100D9000012A1CD11B6813F4003FA8D01A4EB36877
:100DA00023F003031343B360FFF72CFE41F28838AE
:100DB0000746B368626803F00C03B3EB820FA4D05C
:100DC000FFF720FEC01B4045F3D9032090E7911E9A
:100DD00001291B6802D813F0007FDEE713F0020F31
:100DE000DBE7EAB21A701B6803F00F03AB427FF433
:100DF0007EAF90E70449E0688B6823F4E053034337
:100E00008B608BE7003C0240003802404727000817
:100E1000040000200C000020044B054A9B68C3F32B
:100E20008223D35C034A1068D840704700380240E0
:100E30003F27000804000020044B054A9B68C3F3C9
:100E40004233D35C034A1068D840704700380240F0
:100E50003F27000804000020204908B58B6803F0F4
:100E60000C03082B07D00C2B20D01D481D4A042B47
:100E700018BF104608BD4A684B68496813F48003E0
:100E800014BF17481748C1F3881118BF002302F098
:100E90003F02A1FB0001FFF7EBF9104B5B68C3F3C6
:100EA000014301335B00B0FBF3F0E3E74A684B68B2
:100EB000496813F4800314BF09480A48C1F3881134
:100EC00018BF002302F03F02A1FB0001FFF7D0F999
:100ED000024B5B68C3F30273E5E700BF00380240D2
:100EE00040787D010024F4002DE9F34104460028F8
:100EF00031D00368DF0710D423689E0767D42368C6
:100F0000190700F1B28023685A0700F1D280A36963
:100F1000002B40F03981002034E0984B9A6802F0B1
:100F20000C02042A10D09A6802F00C02082A02D19E
:100F30005B685D0208D4914B9A6802F00C020C2A9F
:100F40000BD15A68510208D58C4B1B689A03D3D534
:100F50006368002BD0D1012014E06268B2F5803FB5
:100F600013D11A6842F480321A60FFF74BFD834EAA
:100F7000054633689B03BFD4FFF744FD401B64283C
:100F8000F7D9032002B0BDE8F0817C4DB2F5A02F67
:100F90002B6807D143F480232B602B6843F4803304
:100FA0002B60E2E723F480332B602B6823F480234B
:100FB0002B60002AD9D1FFF725FD06462B689F0339
:100FC0009AD5FFF71FFD801B6428F7D9D9E76B4B33
:100FD0009A6812F00C0F10D09A6802F00C02082ADE
:100FE00002D15B685E0208D5644A936803F00C0383
:100FF0000C2B11D153685D020ED4604A1368990717
:1010000002D5E368012BA6D11368216923F0F80308
:1010100043EAC103136072E7E268594BB2B101229F
:101020001A60FFF7EFFC554D06462B689B0707D566
:101030002B68226923F0F80343EAC2032B605EE7C2
:10104000FFF7E0FC801B0228EFD99AE71A60FFF750
:10105000D9FC4A4E054633689F077FF550AFFFF72E
:10106000D1FC401B0228F6D98BE76269444B82B160
:101070000122C3F8802EFFF7C5FC404E0546736F72
:101080009B073FF540AFFFF7BDFC401B0228F6D998
:1010900077E7C3F8802EFFF7B5FC384E0546736F2F
:1010A0009F077FF530AFFFF7ADFC401B0228F6D954
:1010B00067E7324B1A6C12F0805228D101921A6CF9
:1010C00042F080521A641B6C03F080530193019B21
:1010D00001272C4D2B68D8051BD5A368274D012B64
:1010E00027D12B6F43F001032B67FFF78BFC234EB7
:1010F000054641F28838336F9A0739D5002F3FF4FF
:1011000006AF1E4A136C23F080531364FFE60027DA
:10111000DFE72B6843F480732B60FFF773FC064610
:101120002B68D905D9D4FFF76DFC801B0228F7D9AD
:1011300027E7052B04D12B6F43F004032B67D0E77F
:101140002A6F22F001022A672A6F22F004022A671E
:10115000002BCAD1FFF756FC41F2883806462B6FA8
:101160009B07CBD5FFF74EFC801B4045F7D908E71E
:10117000FFF748FC401B4045BDD902E7003802405C
:1011800000004742007000403C4DAA6802F00C028B
:10119000082A41D0022B3A4B4FF000021A662ED19A
:1011A000FFF730FC06462B68990122D4D4E90732B8
:1011B0001343626A43EA8213E26A43EA0263226BE0
:1011C00043EA0273A26A5208013A43EA02436B609F
:1011D0002B4B2A4D01221A66FFF714FC04462B689C
:1011E0009A013FF598AEFFF70DFC001B0228F6D9D7
:1011F000C7E6FFF707FC801B0228D4D9C1E6FFF73A
:1012000001FC04462B689B017FF585AEFFF7FAFBD6
:10121000001B0228F6D9B4E6012B3FF49CAE6B68A4
:10122000E26903F4800191427FF495AE216A03F0F4
:101230003F028A427FF48FAE616A47F6C0721A405D
:10124000B2EB811F7FF487AEA26A520803F44031EB
:10125000013AB1EB024F7FF47EAEE16A03F07062B7
:10126000B2EB016F7FF477AE226B03F0E043B3EB98
:10127000027F14BF0120002084E600BF0038024036
:1012800000004742036A026A22F0010270B502625E
:10129000446882690D6822F073022A438D6823F046
:1012A00002032B430C4DA84203D005F58065A842EC
:1012B0000BD1CD6823F008032B43D1E9055624F464
:1012C0004074354323F004032C43446082614A6830
:1012D0004263036270BD00BF00000140036A026AFE
:1012E00022F4807270B502624468C2690D6822F00F
:1012F00073022A438D6823F4007343EA05230D4DDE
:10130000A84203D005F58065A8420DD1CD6823F42D
:10131000006343EA0523D1E9055624F440543543DC
:1013200023F4806344EA05144460C2614A68C263DE
:10133000036270BD00000140036A026A22F4805219
:1013400030B502624468C2690D6822F4E64242EA9E
:1013500005228D6823F4005343EA0533084DA84263
:1013600003D005F58065A84204D14D6924F480447A
:1013700044EA85144460C2614A680264036230BD75
:1013800000000140294A0368904212D0B0F1804F1A
:101390000FD0A2F57C4290420BD002F580629042C1
:1013A00007D002F58062904203D002F57842904265
:1013B00008D14A6823F070031343CA6823F44073CA
:1013C000134316E01A4A9042F7D002F58062904229
:1013D000F3D002F580629042EFD0A2F598329042AD
:1013E000EBD002F580629042E7D002F58062904235
:1013F000E3D04A6923F08003134303608B68C36220
:101400000B688362094B984203D003F580639842CE
:1014100001D10B690363012343610369DB0742BF09
:10142000036923F001030361704700BF000001401E
:101430000040014010B5044630B390F83D3003F051
:10144000FF021BB980F83C20FFF712FA0223206844
:1014500084F83D30211DFFF795FF012384F84630C5
:10146000002084F83E3084F83F3084F8403084F81F
:10147000413084F8423084F8433084F8443084F8B2
:10148000453084F83D3010BD0120FCE7036A026A54
:1014900022F0100270B50262446882690D6822F47D
:1014A000E64242EA05228D6823F0200343EA051351
:1014B0000D4DA84203D005F58065A8420DD1CD6839
:1014C00023F0800343EA0513D1E9055624F4406470
:1014D000354323F0400344EA8504446082614A684E
:1014E0008263036270BD00BF0000014038B590F810
:1014F0003C30012B04464FD00120082A84F83C00E0
:101500003AD006D8BAB1042A26D0002384F83C3059
:1015100038BD0C2AF9D12068FFF70EFFC3690A69AC
:1015200043F40063C361C36923F48063C361C36987
:1015300043EA02232EE02068FFF7A4FE83690A69CC
:1015400043F008038361836923F0040383618369A3
:10155000134383610020D8E72068FFF797FF836972
:101560000A6943F400638361836923F480638361C0
:10157000836943EA0223ECE72068FFF7AFFEC36903
:101580000A6943F00803C361C36923F00403C3611C
:10159000C3691343C361DDE70220B9E7036A10B5ED
:1015A00001F01F0101248C4023EA04030362036A53
:1015B0008A401A43026210BD08B529B990F83E303E
:1015C000012B1FD0012035E0042907D190F83F30CE
:1015D000012BF7D1022380F83F3016E008290CBF19
:1015E00090F8403090F84130013B18BF0123002BA8
:1015F000E8D108294FF002030CBF80F8403080F892
:10160000413002E0022380F83E3000680122FFF7FB
:10161000C5FF164B984203D003F5806398420AD168
:10162000436C43F400434364836803F00703062BD1
:1016300017D1002008BDB0F1804FF5D00C4B984277
:10164000F2D003F580639842EED003F580639842B0
:10165000EAD003F59A339842E6D0A3F59433984242
:10166000E2D0036843F001030360E2E700000140B9
:1016700000040040FFF7A0BF30B590F83C30012BCC
:1016800002464FF0020032D0136882F83D005C68D9
:101690000D68986824F070042C435C60144CA342DD
:1016A0001AD0B3F1804F17D0A4F57C44A34213D0D5
:1016B00004F58064A3420FD004F58064A3420BD0EC
:1016C00004F57844A34207D004F57054A34203D034
:1016D000A4F59434A34204D1496820F0800001436A
:1016E00099600123002082F83D3082F83C0030BD33
:1016F00000000140026802F10C0353E8003F23F4AC
:1017000090730C3242E8003102680029F2D102F1F4
:10171000140353E8003F23F0010302F1140C4CE8DA
:1017200000310029F3D1036B012B0BD102F10C0323
:1017300053E8003F23F0100302F10C0C4CE8003199
:101740000029F3D1202380F842300023036370473F
:101750000268C16838B5136923F440530B43136121
:10176000054683680069D168034368690343E869F3
:1017700021F4164121F00C0103430B43D36053695C
:10178000A96923F440730B4353611F4B9A4203D062
:1017900003F580639A4224D1FFF74EFBEA691921D1
:1017A000B2F5004FD5E90043A0FB01011CD1DA18C6
:1017B0004FF0000545EB0503FEF75AFD6422B0FB30
:1017C000F2F102FB1103DB003233B3FBF2F303F05F
:1017D00007025B0002EB011203F4F8731344A360E9
:1017E00038BDFFF719FBD9E79A009B0FFEF740FDC4
:1017F0006422B0FBF2F102FB11031B013233B3FB95
:10180000F2F303EB0113EAE700100140F7B50546D8
:101810000C4617461E462A68136834EA030301D1B2
:10182000002021E0701CF7D0FFF7ECF8C01B8642C7
:101830001CD3DEB12B68DA685107ECD5802CEAD0D6
:10184000402CE8D01A681207E5D5002401941A68E4
:1018500001925B6801932846019BFFF74BFF082329
:101860006B6485F84040012003B0F0BD0320FBE726
:1018700010B5044648B390F8413003F0FF021BB99D
:1018800080F84020FFF734F82268242384F84130A0
:10189000D36823F40053D3602046FFF759FF236831
:1018A0001A6922F490421A615A6922F02A025A6196
:1018B000DA6842F40052DA6000202023606484F881
:1018C000413084F84230606310BD0120FCE72DE90F
:1018D000F843984690F84130202B04460E461746B0
:1018E0003FD100293FD0002A3DD021230025456467
:1018F00080F84130FFF786F8A368A784B3F5805FCE
:101900008146E78403D123690BB935461E46E38C33
:101910009BB253B943464A4640212046FFF776FF23
:10192000202350B984F841300AE043464A468021DA
:101930002046FFF76BFF28B1202384F841300320B5
:10194000BDE8F88322684EB935F8023BC3F30803BB
:101950005360E18C013989B2E184D8E716F8013B84
:10196000F6E70220ECE70120EAE70000DFF834D0D8
:10197000FEF7F4FF0C480D490D4A002302E0D4584D
:10198000C4500433C4188C42F9D30A4A0A4C0023C9
:1019900001E013600432A242FBD300F04FF8FEF7DF
:1019A0007DFE704700000220000000206000002043
:1019B000682700086000002074020020FEE7000095
:1019C0000CB430B5184B0C1E1D689DB008DA8B2383
:1019D0002B604FF0FF301DB0BDE8304002B07047C3
:1019E0004FF40273ADF814304FF000031B9314BF93
:1019F00004F1FF332346049307934FF6FF730290DD
:101A00000690ADF81630209A21AB02A92846019322
:101A100000F092F9431CBCBF8B232B60002CDAD062
:101A2000029B00221A70D6E71000002002440346F1
:101A3000934200D1704703F8011BF9E770B50D4BD5
:101A40000D4D5B1B9C100026A64209D100F0F6FD4F
:101A50000A4D0B4B5B1B9C100026A64205D170BDA6
:101A600055F8043B98470136EEE755F8043B984794
:101A70000136F2E7602700086027000860270008A9
:101A8000642700087047704738B50546002941D0E3
:101A900051F8043C0C1F002BB8BFE41800F0E0F82C
:101AA0001D4A136833B9636014602846BDE83840A6
:101AB00000F0DCB8A34208D9206821188B4201BF8E
:101AC00019685B6809182160EDE71A465B680BB17D
:101AD000A342FAD911685018A0420BD120680144E2
:101AE000501883421160E0D118685B685360084465
:101AF0001060DAE702D90C232B60D6E720682118A2
:101B00008B4204BF19685B68636004BF09182160D9
:101B10005460CAE738BD00BF6C02002070B50F4E9C
:101B20000C463168054611B900F0AAFB3060214629
:101B3000284600F0A5FB431C03D14FF0FF3420469C
:101B400070BDC41C24F00304A042F8D0211A28461A
:101B500000F096FB0130F2D1EFE700BF68020020F1
:101B60002DE9F843CD1C25F0030508350C2D38BFB1
:101B70000C25002D064601DBA94204D90C23336055
:101B80000020BDE8F883DFF8D48000F069F8D8F8C9
:101B900000301C4644BB29463046FFF7BFFF431CBC
:101BA000044658D1D8F800402746002F43D1002CD6
:101BB0004BD023683946304604EB030900F060FB44
:101BC000814542D121686D1A29463046FFF7A6FFAC
:101BD00001303AD023682B442360D8F800305A688B
:101BE00062BBC8F800700FE02268521B20D40B2A99
:101BF00017D96119A342256018BF5960636808BFEF
:101C0000C8F8001062514B60304600F02FF804F124
:101C10000B00231D20F00700C21A1CBF1B1AA35083
:101C2000AFE76268A3420CBFC8F800205A60EBE738
:101C300023466468AEE73C467F68B6E71A465B68B1
:101C4000A342FBD100235360DEE70C233360304610
:101C500000F00CF894E70560D6E700BF6C020020A6
:101C60000148FFF70FBF00BF640200200148FFF7E3
:101C70000ABF00BF640200202DE9F0478E681F46AE
:101C8000BE4282460C469046334653D8B1F90C000A
:101C900010F4906F2BD065692368096905EB450541
:101CA000A3EB010905EBD5757B1C6D104B44AB42D2
:101CB0002A4684BF1D462A46430527D5114650466D
:101CC000FFF74EFF064658B321694A4600F0E8FA8E
:101CD000A38923F4906343F08003A38126616561A7
:101CE0004E44A5EB09052660A5603E463B461F46CF
:101CF00020683A46414600F0A9FAA3689B1BA360FE
:101D000023683B4423600020BDE8F087504600F084
:101D1000D5FA06460028E1D121695046FFF7B4FE06
:101D20000C23CAF80030A38943F04003A3814FF08D
:101D3000FF30E9E73E46DBE72DE9F04F98468B8917
:101D40001B069DB007460D46144610D50B6973B9A6
:101D50004021FFF705FF2860286130B90C233B6064
:101D60004FF0FF301DB0BDE8F08F40236B610023C2
:101D7000099320238DF82930CDF80C803023DFF82B
:101D80009C818DF82A304FF0010923469A4613F8BA
:101D9000012B0AB1252AF9D1BAEB040B0BD05B4613
:101DA000224629463846FFF767FF013000F0A7803A
:101DB000099A5A4409929AF80030002B00F09F804B
:101DC00000234FF0FF32CDE905230AF1010A049305
:101DD00007938DF853301A935446052214F8011BCB
:101DE0004E48FEF7F5F9049AD8B9D00644BF20232F
:101DF0008DF85330110744BF2B238DF853309AF8D8
:101E000000302A2B15D0079A544600204FF00A0CB8
:101E1000214611F8013B303B092B4BD9B0B1079259
:101E200014E0A0EB080309FA03F313430493A2465A
:101E3000D2E7039B191D1B680391002BBBBF5B42BC
:101E400042F0020207930793B8BF049223782E2B27
:101E50000AD163782A2B32D1039B1A1D1B68039287
:101E600043EAE37302340593DFF8C0A0217803222C
:101E70005046FEF7ADF938B1049BA0EB0A004022B2
:101E8000824013430134049314F8011B24488DF855
:101E900028100622FEF79CF9002836D0214B1BBBE8
:101EA000039B073323F0070308330393099B334451
:101EB00009936AE70CFB02320C460120A8E70023D5
:101EC0000134059319464FF00A0C204610F8012BF7
:101ED000303A092A03D9002BC6D00591C4E70CFB80
:101EE000012104460123F0E703AB00932A460E4B81
:101EF00004A93846AFF30080421C0646D6D1AB8910
:101F00005B063FF52DAF09982CE703AB00932A46FB
:101F1000054B04A9384600F079F8EDE70C270008D6
:101F20001627000800000000791C0008122700088E
:101F30002DE9F047164698468A680B69DDF820902F
:101F40009342B8BF1346336091F8432007460C46CE
:101F50000AB1013333602368990642BF3368023304
:101F60003360256815F0060506D104F1190AE36807
:101F700032689B1AAB4226DC94F843302268003B5F
:101F800018BF012392062BD404F143024146384680
:101F9000C84701301ED02368226903F00603042BD2
:101FA00002BFE5683368ED1AA3680CBF25EAE57542
:101FB00000259342C4BF9B1AED1800261A34B5427F
:101FC0001AD1002008E00123524641463846C8474E
:101FD000013003D14FF0FF30BDE8F0870135C6E78F
:101FE000E1185A1C302081F84300224494F845102F
:101FF00082F843100233C7E70123224641463846A0
:10200000C8470130E6D00136D9E700002DE9FF4787
:102010000F7E0C9E782F914680460C469A4601F121
:10202000430207D8622F0AD8002F00F0D280582F21
:1020300000F0B78004F1420684F842703AE0A7F15C
:102040006303152BF6D801A151F823F0A520000851
:10205000B920000835200008352000083520000888
:1020600035200008B9200008352000083520000878
:102070003520000835200008B9210008E3200008B9
:102080006F2100083520000835200008DB210008FA
:1020900035200008E320000835200008352000081E
:1020A0007721000833681A1D1B68326004F142066C
:1020B00084F8423001239DE033682068191D3160A7
:1020C000060601D51D6803E04506FBD5B3F90050AF
:1020D000002D03DA2D236D4284F8433059480A233A
:1020E00010E021683368080653F8045B02D44906FF
:1020F00048BFADB26F2F5348336059D10823002138
:1021000084F843106668A660002E05DB21682E4324
:1021100021F0040121604DD01646B5FBF3F103FB1D
:102120001157C75D06F8017D2F46BB420D46F4D915
:10213000082B0BD12368DF0708D523696168994212
:10214000DEBF302306F8013C06F1FF36921B226108
:10215000CDF800A04B4603AA21464046FFF7E8FE13
:1021600001304CD14FF0FF3004B0BDE8F087236858
:1021700043F0200323603448782784F845702368AF
:1021800031681F0651F8045B02D45F0648BFADB248
:102190003160D90744BF43F0200323601DB11023F1
:1021A000ADE72848E9E7236823F020032360F6E73A
:1021B0000A23A4E71646BBE7336825686169181D42
:1021C00030602E061B6801D5196002E06806FBD559
:1021D0001980002323611646BAE733681A1D32605E
:1021E0001E68626800213046FDF7F2FF08B1801BCF
:1021F000606063682361002384F84330A8E72369A3
:10220000324649464046D0470130ABD023689B0751
:1022100013D4E068039B9842B8BF1846A4E7012393
:10222000324649464046D04701309BD00135E368ED
:1022300003995B1AAB42F2DCEBE7002504F11906C7
:10224000F5E700BF1D2700082E270008884210B5BB
:1022500001EB020402D98442234607D8431EA1425F
:1022600007D011F8012B03F8012FF8E7024482424E
:1022700000D110BD13F8011D02F8011DF7E70000A1
:1022800038B5064D0023044608462B6000F0C8F917
:10229000431C02D12B6803B1236038BD60020020CB
:1022A0000A44914200F1FF3300D1704710B511F894
:1022B000014B03F8014F9142F9D110BD2DE9F041D6
:1022C000074614460D4621B9BDE8F0411146FFF717
:1022D00047BC2AB9FFF7D8FB25462846BDE8F08160
:1022E00000F01AF88442064602D8B4EB500FF4D836
:1022F00021463846FFF734FC804608B94546ECE7EE
:10230000B4422246294628BF3246FFF7C9FF294674
:102310003846FFF7B9FBF1E751F8043C181F002BD2
:10232000BCBF0B58C01870472DE9F047089D0F46F9
:1023300004468C46002B48D18A42164661D9B2FA2F
:1023400082F34BB1C3F1200201FA03FC20FA02F23E
:102350009E4042EA0C0C9C404FEA164EB7B2BCFBC2
:10236000FEF1220C0EFB11CC42EA0C4201FB07F0FD
:10237000904209D9B21801F1FF3C80F0EE80904202
:1023800040F2EB8002393244121AA4B2B2FBFEF0E2
:102390000EFB102244EA024400FB07F7A74209D9CA
:1023A000341900F1FF3280F0DA80A74240F2D78082
:1023B0003444023840EA0140E41B00211DB1DC40F6
:1023C0000023C5E90043BDE8F0878B4206D90DB173
:1023D000C5E9000100210846BDE8F087B3FA83F1A2
:1023E000002948D1BB4202D3824200F20781841AFD
:1023F00067EB030201209446002DE4D0C5E9004CB0
:10240000E1E7002A00F09280B2FA82F3002B40F05C
:10241000A8808A1A4FEA164E1FFA86FC0121200C6A
:10242000B2FBFEF70EFB172240EA02420CFB07F05C
:10243000904207D9B21807F1FF3802D2904200F259
:10244000E2804746121AA4B2B2FBFEF00EFB102245
:1024500044EA02440CFB00FCA44507D9341900F1FE
:10246000FF3202D2A44500F2CB801046A4EB0C044C
:1024700040EA0740A2E7C1F120068B4022FA06FCA1
:102480004CEA030C07FA01F420FA06F3F7404FEA8E
:102490001C49234300FA01F81FFA8CFEB7FBF9F040
:1024A0001C0C09FB107744EA074400FB0EF7A74217
:1024B00002FA01F20AD91CEB040400F1FF3A80F0A1
:1024C0009B80A74240F2988002386444E41B9FB28C
:1024D000B4FBF9F309FB134447EA044403FB0EFE83
:1024E000A64509D91CEB040403F1FF3780F0828074
:1024F000A6457FD9023B644443EA0040A4EB0E04A6
:10250000A0FB02E7BC427346B94663D360D05DB11D
:10251000B8EB030264EB090404FA06F622FA01F3AD
:102520001E43CC40C5E9006400214CE7620848081E
:1025300042EAC1710B0C43EA00438AB242EA034209
:10254000B3FBF6F1E407B4463746B6461F23B0FBAB
:10255000F6F0D21B41EA004161E7614614E71046FC
:1025600028E7C3F1200120FA01F29E4027FA01F189
:102570009F403A434FEA164E1FFA86FCB1FBFEF726
:102580000EFB1710110C41EA004107FB0CF88845BF
:1025900004FA03F43AD9711807F1FF3001D28845E3
:1025A0001FD8A1EB0801B1FBFEF808FB0CF70EFBEE
:1025B000181192B242EA0142BA422FD2B21808F17F
:1025C000FF31C6D2BA42C4D2A8F102013244C0E7F8
:1025D000F0459CD2BEEB020367EB0C070138B9460D
:1025E00095E7A6EB08084144B81EB1FBFEF808FBCE
:1025F0000CF7DCE73B467FE7504667E70846FBE61B
:102600003444023832E7023F32441BE7A1EB0801B1
:102610003846B1FBFEF808FB0CF7C8E7414698E7DF
:10262000044A05491368002B08BF0B461844106084
:10263000184670477002002078020020F8B500BFED
:10264000F8BC08BC9E467047F8B500BFF8BC08BC93
:042650009E467047EB
:1026540050574D2070636C6B3D256C75207073630F
:102664003D256C75206172723D256C752063637223
:10267400333D256C7520636372343D256C7520638E
:1026840072313D256C7520636365723D256C752040
:1026940063636D72323D256C75206D6F6465723DA8
:1026A400256C75206166723D256C75206F64723DE2
:1026B400256C750D0A00425554544F4E20726177B3
:1026C4003D257520636D643D257520636372333D3C
:1026D400256C7520636372343D256C750D0A0053B7
:1026E400455249414C207369673D257520636D64EB
:1026F4003D257520636372333D256C7520636372D9
:10270400343D256C750D0A00232D302B2000686C98
:102714004C00656667454647003031323334353600
:102724003738394142434445460030313233343539
:102734003637383961626364656600000000000161
:10274400020304000000000000000001020304066C
:042754000708090069
:0827580078DAFF7F01000000A8
:042760000D0300085D
:04276400E502000882
:10276800FFFF00000024F40001000000100000003A
:102778001400002000000000280100209001002023
:10278800F801002000000000000000000000000028
:102798000000000000000000000000000000000031
:1027A8000000000000000000000000000000000021
:1027B8000000000000000000000000000000000011
:040000050800196D69
:00000001FF
