:020000040800F2
:100000000000022085180008BD050008BF05000893
:10001000C1050008C3050008C50500080000000070
:10002000000000000000000000000000C7050008FC
:10003000C905000800000000CB050008CD05000838
:10004000D5180008D5180008D5180008D5180008DC
:10005000D5180008D5180008D5180008D5180008CC
:10006000D5180008D5180008D5180008D5180008BC
:10007000D5180008D5180008D5180008D5180008AC
:10008000D5180008D5180008D5180008D51800089C
:10009000D5180008D5180008D5180008D51800088C
:1000A000D5180008D5180008D5180008D51800087C
:1000B000D5180008D5180008D5180008D51800086C
:1000C000D5180008D5180008D5180008D51800085C
:1000D000D5180008D5180008D5180008D51800084C
:1000E000D5180008D5180008D5180008D51800083C
:1000F000D5180008D5180008D5180008D51800082C
:10010000D5180008D5180008D5180008D51800081B
:10011000D5180008D5180008D5180008D51800080B
:10012000D5180008D5180008D5180008D5180008FB
:10013000D51800080000000000000000D5180008D5
:10014000D5180008D5180008D5180008D5180008DB
:10015000D5180008D5180008D5180008D5180008CB
:10016000D5180008D5180008D5180008D5180008BB
:10017000D5180008D5180008D518000800000000A0
:1001800000000000D518000800000000000000007A
:10019000D51800080000000000000000D518000875
:1001A000000000000000000000000000D51800085A
:1001B000D5180008D5180008D5180008D51800086B
:0401C000D518000846
:1001C40053B94AB9002908BF00281CBF4FF0FF31BA
:1001D4004FF0FF3000F00CB8ADF1080C6DE904CE1F
:1001E40001F0A4FBDDF804E0DDE9022304B070476C
:1001F400704700BF0348044B834202D0034B03B152
:10020400184770470C0000200C000020000000007C
:100214000548064B1B1AD90F01EBA301491002D064
:10022400034B03B1184770470C0000200C0000205A
:100234000000000010B5064C237843B9FFF7DAFF3D
:10024400044B13B10448AFF300800123237010BDA5
:100254000C00002000000000281C000808B5054B15
:100264001BB105490548AFF30080BDE80840FFF71E
:10027400CFBF00BF0000000010000020281C0008B1
:10028400012870B5104E05461CD133680F48DC6A4E
:1002940000220921013400F003FC04EB44040B4860
:1002A4002A460621A40800F0FBFB3368012DDC6319
:1002B4001C6404D0054800220F2100F0F1FB044B1C
:1002C4001D7070BD0024F0E7780000200004024097
:1002D4002D0000200B4908B50B6CDA0708D54FF048
:1002E40080430022DA631A641A6A22F488521A627A
:1002F4000B6B9B0704D5044800220F2100F0D0FBB0
:1003040072B6FEE7003802400004024000B595B022
:100314003022002108A801F0DCFA1422002102A8EE
:1003240001F0D7FA00221A4B0092196C41F0805167
:1003340019641B6C174903F080530093009B0192CE
:100344000B6823F4404343F480430B600B680D9225
:1003540003F440430193019B0223079301201023DC
:10036400CDE90A0307A800F0A3FC014608B1FFF792
:10037400B1FF0F23CDE90230CDE90400069002A8B5
:1003840000F094FB0028F2D115B05DF804FB00BF27
:10039400003802400070004080B58EB000F0D6F9FD
:1003A400FFF7B4FF1422002107A801F092FA0024F9
:1003B400774B02941A6B774842F004021A631A6B63
:1003C40002F004020292029A03941A6B42F00202AF
:1003D4001A631A6B02F002020392039A04941A6BD2
:1003E40042F008021A631B6B03F0080322460493CD
:1003F4000F21049B00F054FB01230F21CDE90713C7
:10040400644807A9CDE9094400F078FA4FF4005391
:10041400CDE907346048022307A9099300F06EFA76
:100424001C220DEB02002146CDE9054401F051FAEE
:100434005A4A4FF08043C2E90034104647F22F5322
:10044400C2E903349460946100F0D8FE08B1FFF768
:1004540041FFCDE9050005A9504800F0F1FF00284F
:10046400F5D16023CDE9073009900B9008224B4861
:1004740007A900F01FFF0028E9D148480C2207A96A
:1004840000F018FF05460028E1D1454C434800F030
:10049400CFF8444A25614FF4E1330C262046C4E9E1
:1004A4000023C4E90255C4E90565E56101F0C4F817
:1004B4000028CCD1FFF7E4FE3848082100F0BEFF45
:1004C4000028C4D13548314600F0B8FF0028BED119
:1004D40000F062F9344E354FDFF8D48030603D7857
:1004E4001DB1012000F05EF9F9E701231A460DF170
:1004F4000701204601F01DF9DFF8B890B8BB9DF85C
:100504000730A3F13005EDB2012D29D800F044F9EC
:1005140099F800303060AB4202D02846FFF7B0FEB5
:100524009DF807308DF820300D238DF821300722F7
:100534000A2307A92046CDF81C808DF8223001F04B
:10054400AAF899F80030002BC9D000F025F93368D7
:10055400C01AB0F5FA7FC2D30020FFF791FEBEE7C0
:100564000D2BEED00A2BECD0FFF78AFEE9E7032827
:10057400E7D02846FFF784FE204601F031F92368CE
:1005840005951A6805925B680593059BD9E700BF3A
:1005940000380240000402400008024078000020B5
:1005A4003000002000480040280000202C000020DB
:1005B400434D443D2D000020FEE7FEE7FEE7FEE745
:1005C400FEE770477047704700F0DAB882B00C4B12
:1005D400002100915A6C42F480425A645A6C02F42D
:1005E40080420092009A01911A6C42F080521A647F
:1005F4001B6C03F080530193019B02B0704700BF52
:10060400003802400368B3F1804F82B00BD100235D
:100614000193064B1A6C42F001021A641B6C03F03E
:1006240001030193019B02B0704700BF00380240F0
:1006340010B5044686B01422002101A801F049F93E
:100644002368B3F1804F16D1002300930B4B0C4861
:100654001A6B42F002021A631B6B03F0020300934D
:10066400009B4FF440620223CDE9012301A9012339
:10067400059300F043F906B010BD00BF00380240F6
:100684000004024010B5044688B01422002103A8D7
:1006940001F01FF92268144B9A4223D103F5F83371
:1006A400002101911A6C114842F480221A641A6CD8
:1006B40002F480220192019A02911A6B42F008021C
:1006C4001A631B6B03F008030293029B4FF44072FE
:1006D40002230321CDE903230723CDE9061303A94C
:1006E40000F00CF908B010BD00480040000C0240B6
:1006F400034AD2F8883043F47003C2F88830704754
:1007040000ED00E038B50E4B1A784FF47A73B3FB62
:10071400F2F30C4A05461068B0FBF3F000F09AF8C7
:10072400044658B90F2D09D8024629464FF0FF3028
:1007340000F05EF8044B20461D6038BD0120FCE744
:1007440004000020000000200800002008B50B4B26
:100754001A6842F400721A601A6842F480621A60DD
:100764001A6842F480721A60032000F02FF80F20F8
:10077400FFF7C8FFFFF72AFF002008BD003C024036
:10078400034A044B11681B780B441360704700BF85
:10079400C000002004000020014B1868704700BF0F
:1007A400C000002038B50446FFF7F6FF631C1CBFE9
:1007B400054B1B78054618BFE418FFF7EDFF431BF4
:1007C400A342FAD338BD00BF040000200749CA6819
:1007D40022F4E0620302120403F4E063120C1343F4
:1007E40043F0BF6343F40033CB60704700ED00E097
:1007F400164B30B5DC68C4F30224C4F10703251D8D
:10080400042B28BF0423062D4FF0FF358CBF033C77
:10081400002405FA03F321EA0303A54022EA0502B2
:10082400A340002843EA0203ACBF00F16040084A39
:100834004FEA0313B8BF00F00F00DBB2AABF00F504
:100844006140135480F8003330BD00BF00ED00E078
:1008540014ED00E00138B0F1807F0BD24FF0E023BB
:10086400054A5861F02182F823100020072298617C
:100874001A6170470120704700ED00E070B504462E
:10088400866DFFF789FF94F83530022B054606D0B4
:10089400802363650120002384F8343070BD23680D
:1008A4001A6822F016021A605A6922F080025A610C
:1008B400226C0AB9A26C1AB11A6822F008021A60F2
:1008C4001A6822F001021A602368186810F0010007
:1008D40007D1E26D3F239340B360012384F83530A0
:1008E400D9E7FFF759FF401B0528EDD92023032042
:1008F400636584F83500CEE7406D70472DE9F74F06
:10090400DFF89891634A00230D6801249C4004EAAF
:100914000506AC4340F0AB804D68032705F00304A3
:100924004FEA430807FA08FC671E012F6FEA0C0C14
:1009340034D8876807EA0C0ECF6807FA08F747EA45
:100944000E078760476827EA060EC5F300179F4025
:1009540047EA0E074760C76807EA0C0E8F6807FA74
:1009640008F747EA0E07022CC76019D14FEAD30AE9
:1009740000EB8A0A03F0070BDAF820704FEA8B0BBE
:100984004FF00F0E0EFA0BFE27EA0E0E0F6907FA50
:100994000BF747EA0E07CAF8207001E0032CDAD1FE
:1009A400076804FA08F407EA0C073C4315F4403FCF
:1009B40004605CD000240194D9F8444044F4804499
:1009C400C9F84440D9F8444023F0030707F18047AD
:1009D40004F4804407F59C37019403F0030C019C54
:1009E400D7F808E04FEA8C0C0F2404FA0CF42EEA32
:1009F400040E294CA04241D004F58064A0423FD0AB
:100A040004F58064A0423DD004F58064A0423BD04C
:100A140004F58064A04239D004F58064A04237D044
:100A240004F58064A04214BF0724062404FA0CF4DD
:100A340044EA0E04BC609468F74315F4801F0CBFAD
:100A44003C4034439460D46815F4001F0CBF3C4010
:100A54003443D460546815F4003F0CBF3C40344325
:100A640054601468ED0354BF3C40344314600133B4
:100A7400102B7FF449AF03B0BDE8F08F0024D5E715
:100A84000124D3E70224D1E70324CFE70424CDE7EC
:100A94000524CBE7003C014000000240003802403E
:100AA4000AB1816170470904FBE700002DE9F041B8
:100AB4000D46044610B90120BDE8F081434B1A6885
:100AC40002F00F028A4228D321688F072DD4C80769
:100AD40040D43E4B1A6802F00F02AA4265D822683D
:100AE40051076BD4130707D5394A2169936823F456
:100AF400604343EAC103936000F092F8344B354AF3
:100B04009B68C3F30313D35CD840334B1860334B57
:100B14001868FFF7F7FD0020CEE7CAB21A701B6809
:100B240003F00F038B42C6D1CEE7294B11F0040F1B
:100B34001EBF9A6842F4E0529A600E0742BF9A6858
:100B440042F460429A609A68A06822F0F00202437C
:100B54009A60BCE762681E4B012A1CD11B6813F41F
:100B6400003FA8D01A4EB36823F003031343B360C5
:100B7400FFF712FE41F288380746B368626803F053
:100B84000C03B3EB820FA4D0FFF706FEC01B404555
:100B9400F3D9032090E7911E01291B6802D813F0B2
:100BA400007FDEE713F0020FDBE7EAB21A701B687E
:100BB40003F00F03AB427FF47EAF90E70449E06893
:100BC4008B6823F4E05303438B608BE7003C0240C3
:100BD40000380240481C00080000002008000020E3
:100BE400044B054A9B68C3F38223D35C034A106811
:100BF400D840704700380240401C00080000002024
:100C0400044B054A9B68C3F34233D35C034A106820
:100C1400D840704700380240401C00080000002003
:100C2400204908B58B6803F00C03082B07D00C2B64
:100C340020D01D481D4A042B18BF104608BD4A6821
:100C44004B68496813F4800314BF17481748C1F36D
:100C5400881118BF002302F03F02A1FB0001FFF737
:100C6400AFFA104B5B68C3F3014301335B00B0FB85
:100C7400F3F0E3E74A684B68496813F4800314BF50
:100C840009480A48C1F3881118BF002302F03F0243
:100C9400A1FB0001FFF794FA024B5B68C3F30273F4
:100CA400E5E700BF0038024040787D010024F400ED
:100CB4002DE9F3410446002831D00368DF0710D43E
:100CC40023689E0767D42368190700F1B28023685C
:100CD4005A0700F1D280A369002B40F0398100202B
:100CE40034E0984B9A6802F00C02042A10D09A68F7
:100CF40002F00C02082A02D15B685D0208D4914B11
:100D04009A6802F00C020C2A0BD15A68510208D5D9
:100D14008C4B1B689A03D3D56368002BD0D1012078
:100D240014E06268B2F5803F13D11A6842F480324D
:100D34001A60FFF731FD834E054633689B03BFD429
:100D4400FFF72AFD401B6428F7D9032002B0BDE851
:100D5400F0817C4DB2F5A02F2B6807D143F480239A
:100D64002B602B6843F480332B60E2E723F4803359
:100D74002B602B6823F480232B60002AD9D1FFF742
:100D84000BFD06462B689F039AD5FFF705FD801BD4
:100D94006428F7D9D9E76B4B9A6812F00C0F10D07E
:100DA4009A6802F00C02082A02D15B685E0208D538
:100DB400644A936803F00C030C2B11D153685D0251
:100DC4000ED4604A1368990702D5E368012BA6D1B3
:100DD4001368216923F0F80343EAC103136072E73F
:100DE400E268594BB2B101221A60FFF7D5FC554DA8
:100DF40006462B689B0707D52B68226923F0F80366
:100E040043EAC2032B605EE7FFF7C6FC801B02289F
:100E1400EFD99AE71A60FFF7BFFC4A4E05463368DC
:100E24009F077FF550AFFFF7B7FC401B0228F6D9A8
:100E34008BE76269444B82B10122C3F8802EFFF72D
:100E4400ABFC404E0546736F9B073FF540AFFFF781
:100E5400A3FC401B0228F6D977E7C3F8802EFFF7DE
:100E64009BFC384E0546736F9F077FF530AFFFF745
:100E740093FC401B0228F6D967E7324B1A6C12F038
:100E8400805228D101921A6C42F080521A641B6C71
:100E940003F080530193019B01272C4D2B68D80547
:100EA4001BD5A368274D012B27D12B6F43F00103DA
:100EB4002B67FFF771FC234E054641F28838336FE8
:100EC4009A0739D5002F3FF406AF1E4A136C23F05E
:100ED40080531364FFE60027DFE72B6843F4807335
:100EE4002B60FFF759FC06462B68D905D9D4FFF7C8
:100EF40053FC801B0228F7D927E7052B04D12B6F5D
:100F040043F004032B67D0E72A6F22F001022A671B
:100F14002A6F22F004022A67002BCAD1FFF73CFC97
:100F240041F2883806462B6F9B07CBD5FFF734FC7C
:100F3400801B4045F7D908E7FFF72EFC401B4045CE
:100F4400BDD902E70038024000004742007000406B
:100F54003C4DAA6802F00C02082A41D0022B3A4BFD
:100F64004FF000021A662ED1FFF716FC06462B68D6
:100F7400990122D4D4E907321343626A43EA821303
:100F8400E26A43EA0263226B43EA0273A26A5208EA
:100F9400013A43EA02436B602B4B2A4D01221A6645
:100FA400FFF7FAFB04462B689A013FF598AEFFF76A
:100FB400F3FB001B0228F6D9C7E6FFF7EDFB801B05
:100FC4000228D4D9C1E6FFF7E7FB04462B689B014E
:100FD4007FF585AEFFF7E0FB001B0228F6D9B4E6E7
:100FE400012B3FF49CAE6B68E26903F480019142EB
:100FF4007FF495AE216A03F03F028A427FF48FAEFC
:10100400616A47F6C0721A40B2EB811F7FF487AE63
:10101400A26A520803F44031013AB1EB024F7FF463
:101024007EAEE16A03F07062B2EB016F7FF477AEDB
:10103400226B03F0E043B3EB027F14BF01200020D6
:1010440084E600BF0038024000004742036A026A97
:1010540022F0010270B50262446882690D6822F0D0
:1010640073022A438D6823F002032B430C4DA842DC
:1010740003D005F58065A8420BD1CD6823F00803A1
:101084002B43D1E9055624F44074354323F004037B
:101094002C43446082614A684263036270BD00BFAE
:1010A40000000140036A026A22F4807270B5026291
:1010B4004468C2690D6822F073022A438D6823F4E0
:1010C400007343EA05230D4DA84203D005F580655E
:1010D400A8420DD1CD6823F4006343EA0523D1E986
:1010E400055624F44054354323F4806344EA05143C
:1010F4004460C2614A68C263036270BD000001407B
:10110400036A026A22F4805230B502624468C269FA
:101114000D6822F4E64242EA05228D6823F4005366
:1011240043EA0533084DA84203D005F58065A8427B
:1011340004D14D6924F4804444EA85144460C261B6
:101144004A680264036230BD00000140294A036812
:10115400904212D0B0F1804F0FD0A2F57C42904261
:101164000BD002F58062904207D002F58062904273
:1011740003D002F57842904208D14A6823F0700304
:101184001343CA6823F44073134316E01A4A904287
:10119400F7D002F580629042F3D002F5806290426B
:1011A400EFD0A2F598329042EBD002F580629042E3
:1011B400E7D002F580629042E3D04A6923F08003CD
:1011C400134303608B68C3620B688362094B9842C4
:1011D40003D003F58063984201D10B6903630123B3
:1011E40043610369DB0742BF036923F00103036121
:1011F400704700BF000001400040014010B50446A4
:1012040030B390F83D3003F0FF021BB980F83C2066
:10121400FFF7F8F90223206884F83D30211DFFF719
:1012240095FF012384F84630002084F83E3084F88A
:101234003F3084F8403084F8413084F8423084F8F8
:10124400433084F8443084F8453084F83D3010BD90
:101254000120FCE7036A026A22F0100270B5026200
:10126400446882690D6822F4E64242EA05228D68E8
:1012740023F0200343EA05130D4DA84203D005F5DE
:101284008065A8420DD1CD6823F0800343EA05139D
:10129400D1E9055624F44064354323F0400344EA7D
:1012A4008504446082614A688263036270BD00BF42
:1012B4000000014038B590F83C30012B04464FD073
:1012C4000120082A84F83C003AD006D8BAB1042A8E
:1012D40026D0002384F83C3038BD0C2AF9D120688C
:1012E400FFF70EFFC3690A6943F40063C361C3696E
:1012F40023F48063C361C36943EA02232EE02068B8
:10130400FFF7A4FE83690A6943F0080383618369D4
:1013140023F0040383618369134383610020D8E7C6
:101324002068FFF797FF83690A6943F400638361C8
:10133400836923F480638361836943EA0223ECE7CE
:101344002068FFF7AFFEC3690A6943F00803C3616D
:10135400C36923F00403C361C3691343C361DDE7B5
:101364000220B9E7036A10B501F01F0101248C4083
:1013740023EA04030362036A8A401A43026210BD2B
:1013840008B529B990F83E30012B1FD0012035E073
:10139400042907D190F83F30012BF7D1022380F8BC
:1013A4003F3016E008290CBF90F8403090F84130E7
:1013B400013B18BF0123002BE8D108294FF0020399
:1013C4000CBF80F8403080F8413002E0022380F8FE
:1013D4003E3000680122FFF7C5FF164B984203D048
:1013E40003F5806398420AD1436C43F40043436499
:1013F400836803F00703062B17D1002008BDB0F162
:10140400804FF5D00C4B9842F2D003F5806398429C
:10141400EED003F580639842EAD003F59A339842FC
:10142400E6D0A3F594339842E2D0036843F0010375
:101434000360E2E70000014000040040FFF7A0BFA2
:1014440030B590F83C30012B02464FF0020032D008
:10145400136882F83D005C680D68986824F0700495
:101464002C435C60144CA3421AD0B3F1804F17D0C4
:10147400A4F57C44A34213D004F58064A3420FD0A6
:1014840004F58064A3420BD004F57844A34207D04A
:1014940004F57054A34203D0A4F59434A34204D1B8
:1014A400496820F08000014399600123002082F8FC
:1014B4003D3082F83C0030BD00000140026802F17A
:1014C4000C0353E8003F23F490730C3242E80031DC
:1014D40002680029F2D102F1140353E8003F23F01B
:1014E400010302F1140C4CE800310029F3D1036B21
:1014F400012B0BD102F10C0353E8003F23F010033E
:1015040002F10C0C4CE800310029F3D1202380F8BF
:1015140042300023036370470268C16838B5136919
:1015240023F440530B431361054683680069D16873
:10153400034368690343E86921F4164121F00C016F
:1015440003430B43D3605369A96923F440730B43EA
:1015540053611F4B9A4203D003F580639A4224D10E
:10156400FFF74EFBEA691921B2F5004FD5E90043B4
:10157400A0FB01011CD1DA184FF0000545EB05036F
:10158400FEF71EFE6422B0FBF2F102FB1103DB0046
:101594003233B3FBF2F303F007025B0002EB0112F8
:1015A40003F4F8731344A36038BDFFF719FBD9E7BC
:1015B4009A009B0FFEF704FE6422B0FBF2F102FBDB
:1015C40011031B013233B3FBF2F303EB0113EAE71C
:1015D40000100140F7B505460C4617461E462A681A
:1015E400136834EA030301D1002021E0701CF7D012
:1015F400FFF7D2F8C01B86421CD3DEB12B68DA6831
:101604005107ECD5802CEAD0402CE8D01A68120798
:10161400E5D5002401941A6801925B680193284679
:10162400019BFFF74BFF08236B6485F840400120C2
:1016340003B0F0BD0320FBE710B5044648B390F8AF
:10164400413003F0FF021BB980F84020FFF71AF87D
:101654002268242384F84130D36823F40053D360F0
:101664002046FFF759FF23681A6922F490421A6151
:101674005A6922F02A025A61DA6842F40052DA60A6
:1016840000202023606484F8413084F84230606391
:1016940010BD0120FCE72DE9F843984690F841304D
:1016A400202B04460E4617463FD100293FD0002A7E
:1016B4003DD021230025456480F84130FFF76CF8C4
:1016C400A368A784B3F5805F8146E78403D12369C7
:1016D4000BB935461E46E38C9BB253B943464A4682
:1016E40040212046FFF776FF202350B984F841308B
:1016F4000AE043464A4680212046FFF76BFF28B1A3
:10170400202384F841300320BDE8F88322684EB9D1
:1017140035F8023BC3F308035360E18C013989B205
:10172400E184D8E716F8013BF6E70220ECE7012054
:10173400EAE72DE9F8431F4690F84230202B04468F
:101744000E46914648D1002948D0002A46D022238B
:101754000025456480F842300563FFF71DF8A3684F
:10176400A4F82C90B3F5805F8046A4F82E9003D1A2
:1017740023690BB935461E46E08D80B218B9202383
:1017840084F842300AE03B46424620212046FFF7D7
:1017940021FF28B1202384F842300320BDE8F883D8
:1017A40023684EB95B68C3F3080325F8023BE38D55
:1017B400013B9BB2E385DFE7A268B2F5805F02D00C
:1017C40032B9226922B95968C9B206F8011BEEE799
:1017D400596801F07F01F8E70220DFE70120DDE727
:1017E40010B50446226802F10C0353E8003F23F4C9
:1017F40090730C3242E8003123680029F2D103F1DE
:10180400140252E8002F22F0010203F1140040E810
:1018140000210029F3D1226B012A0BD103F10C0220
:1018240052E8002F22F0100203F10C0040E80021DE
:101834000029F3D15A6952061AD503F1140252E869
:10184400002F22F0400203F1140040E80021002997
:10185400F3D1E06B60B10165FFF710F840B1E06BC4
:10186400FFF74AF8202803D110236364032010BD36
:1018740000202023E08584F842302063F7E700004D
:10188400DFF834D0FEF734FF0C480D490D4A00232D
:1018940002E0D458C4500433C4188C42F9D30A4A21
:1018A4000A4C002301E013600432A242FBD300F08F
:1018B40019F8FEF771FD70470000022000000020B7
:1018C4000C000020681C00080C000020C40000204C
:1018D400FEE702440346934200D1704703F8011B1C
:1018E400F9E7000070B50D4B0D4D5B1B9C100026F5
:1018F400A64209D100F096F90A4D0B4B5B1B9C10D4
:101904000026A64205D170BD55F8043B9847013620
:10191400EEE755F8043B98470136F2E7601C0008EF
:10192400601C0008601C0008641C00082DE9F047D6
:10193400089D0F4604468C46002B48D18A42164621
:1019440061D9B2FA82F34BB1C3F1200201FA03FC6C
:1019540020FA02F29E4042EA0C0C9C404FEA164EDA
:10196400B7B2BCFBFEF1220C0EFB11CC42EA0C42D6
:1019740001FB07F0904209D9B21801F1FF3C80F055
:10198400EE80904240F2EB8002393244121AA4B243
:10199400B2FBFEF00EFB102244EA024400FB07F700
:1019A400A74209D9341900F1FF3280F0DA80A74246
:1019B40040F2D7803444023840EA0140E41B00215D
:1019C4001DB1DC400023C5E90043BDE8F0878B422C
:1019D40006D90DB1C5E9000100210846BDE8F0872C
:1019E400B3FA83F1002948D1BB4202D3824200F208
:1019F4000781841A67EB030201209446002DE4D08A
:101A0400C5E9004CE1E7002A00F09280B2FA82F3C3
:101A1400002B40F0A8808A1A4FEA164E1FFA86FC63
:101A24000121200CB2FBFEF70EFB172240EA024212
:101A34000CFB07F0904207D9B21807F1FF3802D225
:101A4400904200F2E2804746121AA4B2B2FBFEF0C2
:101A54000EFB102244EA02440CFB00FCA44507D907
:101A6400341900F1FF3202D2A44500F2CB801046B3
:101A7400A4EB0C0440EA0740A2E7C1F120068B4026
:101A840022FA06FC4CEA030C07FA01F420FA06F3E6
:101A9400F7404FEA1C49234300FA01F81FFA8CFE71
:101AA400B7FBF9F01C0C09FB107744EA074400FB70
:101AB4000EF7A74202FA01F20AD91CEB040400F162
:101AC400FF3A80F09B80A74240F298800238644439
:101AD400E41B9FB2B4FBF9F309FB134447EA044443
:101AE40003FB0EFEA64509D91CEB040403F1FF37E2
:101AF40080F08280A6457FD9023B644443EA0040DB
:101B0400A4EB0E04A0FB02E7BC427346B94663D3C0
:101B140060D05DB1B8EB030264EB090404FA06F685
:101B240022FA01F31E43CC40C5E9006400214CE7CE
:101B34006208480842EAC1710B0C43EA00438AB2C6
:101B440042EA0342B3FBF6F1E407B4463746B6462D
:101B54001F23B0FBF6F0D21B41EA004161E7614666
:101B640014E7104628E7C3F1200120FA01F29E4051
:101B740027FA01F19F403A434FEA164E1FFA86FCBA
:101B8400B1FBFEF70EFB1710110C41EA004107FBF5
:101B94000CF8884504FA03F43AD9711807F1FF30B8
:101BA40001D288451FD8A1EB0801B1FBFEF808FB60
:101BB4000CF70EFB181192B242EA0142BA422FD23C
:101BC400B21808F1FF31C6D2BA42C4D2A8F1020158
:101BD4003244C0E7F0459CD2BEEB020367EB0C072E
:101BE4000138B94695E7A6EB08084144B81EB1FB95
:101BF400FEF808FB0CF7DCE73B467FE7504667E757
:101C04000846FBE63444023832E7023F32441BE71D
:101C1400A1EB08013846B1FBFEF808FB0CF7C8E756
:101C2400414698E7F8B500BFF8BC08BC9E4670472B
:0C1C3400F8B500BFF8BC08BC9E46704725
:101C4000000000000102030400000000000000008A
:081C5000010203040607080964
:081C5800D8FCFF7F0100000031
:041C60006102000815
:041C64003902000839
:0C1C68000024F400010000001000000047
:040000050800188552
:00000001FF
